{
  "contractName": "GoldenTicketNFT",
  "abi": [
    {
      "inputs": [
        {
          "internalType": "address",
          "name": "_baycAddress",
          "type": "address"
        },
        {
          "internalType": "address",
          "name": "_maycAddress",
          "type": "address"
        },
        {
          "internalType": "address",
          "name": "_goldenTicketAddress",
          "type": "address"
        },
        {
          "internalType": "uint256",
          "name": "_goldenTicketTokenId",
          "type": "uint256"
        },
        {
          "internalType": "uint256",
          "name": "_goldenTicket2TokenId",
          "type": "uint256"
        },
        {
          "internalType": "address",
          "name": "_transferToAddress",
          "type": "address"
        }
      ],
      "stateMutability": "nonpayable",
      "type": "constructor"
    },
    {
      "inputs": [
        {
          "internalType": "address",
          "name": "_owner",
          "type": "address"
        },
        {
          "internalType": "uint256",
          "name": "_tokenId",
          "type": "uint256"
        }
      ],
      "name": "isGoldenTicketOwner",
      "outputs": [
        {
          "internalType": "bool",
          "name": "",
          "type": "bool"
        }
      ],
      "stateMutability": "view",
      "type": "function",
      "constant": true
    },
    {
      "inputs": [
        {
          "internalType": "address",
          "name": "_owner",
          "type": "address"
        },
        {
          "internalType": "uint256",
          "name": "_tokenId",
          "type": "uint256"
        }
      ],
      "name": "checkGoldenTicketBalance",
      "outputs": [
        {
          "internalType": "uint256",
          "name": "",
          "type": "uint256"
        }
      ],
      "stateMutability": "view",
      "type": "function",
      "constant": true
    },
    {
      "inputs": [
        {
          "internalType": "address",
          "name": "_from",
          "type": "address"
        },
        {
          "internalType": "uint256",
          "name": "_ticketTokenId",
          "type": "uint256"
        },
        {
          "internalType": "bytes",
          "name": "_data",
          "type": "bytes"
        },
        {
          "internalType": "address",
          "name": "_contract",
          "type": "address"
        }
      ],
      "name": "transferGoldenTicket",
      "outputs": [],
      "stateMutability": "nonpayable",
      "type": "function"
    },
    {
      "inputs": [
        {
          "internalType": "address",
          "name": "_owner",
          "type": "address"
        }
      ],
      "name": "fetchOwnerBAYCBalance",
      "outputs": [
        {
          "internalType": "uint256",
          "name": "",
          "type": "uint256"
        }
      ],
      "stateMutability": "view",
      "type": "function",
      "constant": true
    },
    {
      "inputs": [
        {
          "internalType": "address",
          "name": "_owner",
          "type": "address"
        }
      ],
      "name": "fetchOwnerMAYCBalance",
      "outputs": [
        {
          "internalType": "uint256",
          "name": "",
          "type": "uint256"
        }
      ],
      "stateMutability": "view",
      "type": "function",
      "constant": true
    },
    {
      "inputs": [
        {
          "internalType": "address",
          "name": "_owner",
          "type": "address"
        },
        {
          "internalType": "uint256",
          "name": "_index",
          "type": "uint256"
        }
      ],
      "name": "fetchOwnerBAYCTokenId",
      "outputs": [
        {
          "internalType": "uint256",
          "name": "",
          "type": "uint256"
        }
      ],
      "stateMutability": "view",
      "type": "function",
      "constant": true
    },
    {
      "inputs": [
        {
          "internalType": "address",
          "name": "_owner",
          "type": "address"
        },
        {
          "internalType": "uint256",
          "name": "_index",
          "type": "uint256"
        }
      ],
      "name": "fetchOwnerMAYCTokenId",
      "outputs": [
        {
          "internalType": "uint256",
          "name": "",
          "type": "uint256"
        }
      ],
      "stateMutability": "view",
      "type": "function",
      "constant": true
    },
    {
      "inputs": [
        {
          "internalType": "uint256",
          "name": "_tokenId",
          "type": "uint256"
        }
      ],
      "name": "fetchOwnerBAYCTokenURI",
      "outputs": [
        {
          "internalType": "string",
          "name": "",
          "type": "string"
        }
      ],
      "stateMutability": "view",
      "type": "function",
      "constant": true
    }
  ],
  "bytecode": "0x60806040523480156200001157600080fd5b506040516200178838038062001788833981810160405281019062000037919062000245565b856000806101000a81548173ffffffffffffffffffffffffffffffffffffffff021916908373ffffffffffffffffffffffffffffffffffffffff16021790555085600160006101000a81548173ffffffffffffffffffffffffffffffffffffffff021916908373ffffffffffffffffffffffffffffffffffffffff16021790555085600260006101000a81548173ffffffffffffffffffffffffffffffffffffffff021916908373ffffffffffffffffffffffffffffffffffffffff16021790555084600360006101000a81548173ffffffffffffffffffffffffffffffffffffffff021916908373ffffffffffffffffffffffffffffffffffffffff16021790555084600460006101000a81548173ffffffffffffffffffffffffffffffffffffffff021916908373ffffffffffffffffffffffffffffffffffffffff16021790555083600560006101000a81548173ffffffffffffffffffffffffffffffffffffffff021916908373ffffffffffffffffffffffffffffffffffffffff160217905550826006819055508160078190555080600860006101000a81548173ffffffffffffffffffffffffffffffffffffffff021916908373ffffffffffffffffffffffffffffffffffffffff1602179055505050505050506200034d565b600081519050620002288162000319565b92915050565b6000815190506200023f8162000333565b92915050565b60008060008060008060c087890312156200025f57600080fd5b60006200026f89828a0162000217565b96505060206200028289828a0162000217565b95505060406200029589828a0162000217565b9450506060620002a889828a016200022e565b9350506080620002bb89828a016200022e565b92505060a0620002ce89828a0162000217565b9150509295509295509295565b6000620002e882620002ef565b9050919050565b600073ffffffffffffffffffffffffffffffffffffffff82169050919050565b6000819050919050565b6200032481620002db565b81146200033057600080fd5b50565b6200033e816200030f565b81146200034a57600080fd5b50565b61142b806200035d6000396000f3fe608060405234801561001057600080fd5b50600436106100885760003560e01c806398a76eb91161005b57806398a76eb914610139578063af3bbf5014610169578063ca66d28114610199578063fd160b23146101c957610088565b806304be9f5d1461008d57806322666cfb146100bd57806394befb97146100d95780639551723a14610109575b600080fd5b6100a760048036038101906100a29190610d39565b6101f9565b6040516100b491906111f0565b60405180910390f35b6100d760048036038101906100d29190610d75565b6102b0565b005b6100f360048036038101906100ee9190610d39565b6107a7565b60405161010091906111f0565b60405180910390f35b610123600480360381019061011e9190610e5a565b61085d565b604051610130919061116e565b60405180910390f35b610153600480360381019061014e9190610d10565b610916565b60405161016091906111f0565b60405180910390f35b610183600480360381019061017e9190610d39565b6109ca565b6040516101909190611153565b60405180910390f35b6101b360048036038101906101ae9190610d10565b610a82565b6040516101c091906111f0565b60405180910390f35b6101e360048036038101906101de9190610d39565b610b35565b6040516101f091906111f0565b60405180910390f35b6000600260009054906101000a900473ffffffffffffffffffffffffffffffffffffffff1673ffffffffffffffffffffffffffffffffffffffff16632f745c5984846040518363ffffffff1660e01b815260040161025892919061112a565b60206040518083038186803b15801561027057600080fd5b505afa158015610284573d6000803e3d6000fd5b505050506040513d601f19601f820116820180604052508101906102a89190610e83565b905092915050565b836000600560009054906101000a900473ffffffffffffffffffffffffffffffffffffffff1673ffffffffffffffffffffffffffffffffffffffff1662fdd58e836006546040518363ffffffff1660e01b815260040161031192919061112a565b60206040518083038186803b15801561032957600080fd5b505afa15801561033d573d6000803e3d6000fd5b505050506040513d601f19601f820116820180604052508101906103619190610e83565b118061041a57506000600560009054906101000a900473ffffffffffffffffffffffffffffffffffffffff1673ffffffffffffffffffffffffffffffffffffffff1662fdd58e836007546040518363ffffffff1660e01b81526004016103c892919061112a565b60206040518083038186803b1580156103e057600080fd5b505afa1580156103f4573d6000803e3d6000fd5b505050506040513d601f19601f820116820180604052508101906104189190610e83565b115b610459576040517f08c379a000000000000000000000000000000000000000000000000000000000815260040161045090611190565b60405180910390fd5b8460008060009054906101000a900473ffffffffffffffffffffffffffffffffffffffff1673ffffffffffffffffffffffffffffffffffffffff166370a08231836040518263ffffffff1660e01b81526004016104b6919061108c565b60206040518083038186803b1580156104ce57600080fd5b505afa1580156104e2573d6000803e3d6000fd5b505050506040513d601f19601f820116820180604052508101906105069190610e83565b11806105bc57506000600360009054906101000a900473ffffffffffffffffffffffffffffffffffffffff1673ffffffffffffffffffffffffffffffffffffffff166370a08231836040518263ffffffff1660e01b815260040161056a919061108c565b60206040518083038186803b15801561058257600080fd5b505afa158015610596573d6000803e3d6000fd5b505050506040513d601f19601f820116820180604052508101906105ba9190610e83565b115b6105fb576040517f08c379a00000000000000000000000000000000000000000000000000000000081526004016105f2906111d0565b60405180910390fd5b600560009054906101000a900473ffffffffffffffffffffffffffffffffffffffff1673ffffffffffffffffffffffffffffffffffffffff1663e985e9c587856040518363ffffffff1660e01b81526004016106589291906110a7565b60206040518083038186803b15801561067057600080fd5b505afa158015610684573d6000803e3d6000fd5b505050506040513d601f19601f820116820180604052508101906106a89190610df0565b6106e7576040517f08c379a00000000000000000000000000000000000000000000000000000000081526004016106de906111b0565b60405180910390fd5b600560009054906101000a900473ffffffffffffffffffffffffffffffffffffffff1673ffffffffffffffffffffffffffffffffffffffff1663f242432a87600860009054906101000a900473ffffffffffffffffffffffffffffffffffffffff16886001896040518663ffffffff1660e01b815260040161076d9594939291906110d0565b600060405180830381600087803b15801561078757600080fd5b505af115801561079b573d6000803e3d6000fd5b50505050505050505050565b6000600560009054906101000a900473ffffffffffffffffffffffffffffffffffffffff1673ffffffffffffffffffffffffffffffffffffffff1662fdd58e84846040518363ffffffff1660e01b815260040161080592919061112a565b60206040518083038186803b15801561081d57600080fd5b505afa158015610831573d6000803e3d6000fd5b505050506040513d601f19601f820116820180604052508101906108559190610e83565b905092915050565b6060600160009054906101000a900473ffffffffffffffffffffffffffffffffffffffff1673ffffffffffffffffffffffffffffffffffffffff1663c87b56dd836040518263ffffffff1660e01b81526004016108ba91906111f0565b60006040518083038186803b1580156108d257600080fd5b505afa1580156108e6573d6000803e3d6000fd5b505050506040513d6000823e3d601f19601f8201168201806040525081019061090f9190610e19565b9050919050565b6000600360009054906101000a900473ffffffffffffffffffffffffffffffffffffffff1673ffffffffffffffffffffffffffffffffffffffff166370a08231836040518263ffffffff1660e01b8152600401610973919061108c565b60206040518083038186803b15801561098b57600080fd5b505afa15801561099f573d6000803e3d6000fd5b505050506040513d601f19601f820116820180604052508101906109c39190610e83565b9050919050565b600080600560009054906101000a900473ffffffffffffffffffffffffffffffffffffffff1673ffffffffffffffffffffffffffffffffffffffff1662fdd58e85856040518363ffffffff1660e01b8152600401610a2992919061112a565b60206040518083038186803b158015610a4157600080fd5b505afa158015610a55573d6000803e3d6000fd5b505050506040513d601f19601f82011682018060405250810190610a799190610e83565b11905092915050565b60008060009054906101000a900473ffffffffffffffffffffffffffffffffffffffff1673ffffffffffffffffffffffffffffffffffffffff166370a08231836040518263ffffffff1660e01b8152600401610ade919061108c565b60206040518083038186803b158015610af657600080fd5b505afa158015610b0a573d6000803e3d6000fd5b505050506040513d601f19601f82011682018060405250810190610b2e9190610e83565b9050919050565b6000600460009054906101000a900473ffffffffffffffffffffffffffffffffffffffff1673ffffffffffffffffffffffffffffffffffffffff16632f745c5984846040518363ffffffff1660e01b8152600401610b9492919061112a565b60206040518083038186803b158015610bac57600080fd5b505afa158015610bc0573d6000803e3d6000fd5b505050506040513d601f19601f82011682018060405250810190610be49190610e83565b905092915050565b6000610bff610bfa8461123c565b61120b565b905082815260208101848484011115610c1757600080fd5b610c2284828561132e565b509392505050565b6000610c3d610c388461126c565b61120b565b905082815260208101848484011115610c5557600080fd5b610c6084828561133d565b509392505050565b600081359050610c77816113b0565b92915050565b600081519050610c8c816113c7565b92915050565b600082601f830112610ca357600080fd5b8135610cb3848260208601610bec565b91505092915050565b600082601f830112610ccd57600080fd5b8151610cdd848260208601610c2a565b91505092915050565b600081359050610cf5816113de565b92915050565b600081519050610d0a816113de565b92915050565b600060208284031215610d2257600080fd5b6000610d3084828501610c68565b91505092915050565b60008060408385031215610d4c57600080fd5b6000610d5a85828601610c68565b9250506020610d6b85828601610ce6565b9150509250929050565b60008060008060808587031215610d8b57600080fd5b6000610d9987828801610c68565b9450506020610daa87828801610ce6565b935050604085013567ffffffffffffffff811115610dc757600080fd5b610dd387828801610c92565b9250506060610de487828801610c68565b91505092959194509250565b600060208284031215610e0257600080fd5b6000610e1084828501610c7d565b91505092915050565b600060208284031215610e2b57600080fd5b600082015167ffffffffffffffff811115610e4557600080fd5b610e5184828501610cbc565b91505092915050565b600060208284031215610e6c57600080fd5b6000610e7a84828501610ce6565b91505092915050565b600060208284031215610e9557600080fd5b6000610ea384828501610cfb565b91505092915050565b610eb5816112d4565b82525050565b610ec4816112e6565b82525050565b6000610ed58261129c565b610edf81856112b2565b9350610eef81856020860161133d565b610ef88161139f565b840191505092915050565b610f0c8161131c565b82525050565b6000610f1d826112a7565b610f2781856112c3565b9350610f3781856020860161133d565b610f408161139f565b840191505092915050565b6000610f586036836112c3565b91507f476f6c64656e5469636b65744f776e65723a2043616c6c6572206973206e6f7460008301527f206120676f6c64656e207469636b6574206f776e6572000000000000000000006020830152604082019050919050565b6000610fbe6038836112c3565b91507f476f6c64656e205469636b6574207472616e736665723a20436f6e747261637460008301527f2061646472657373206973206e6f7420617070726f76656400000000000000006020830152604082019050919050565b60006110246024836112c3565b91507f4170654f776e65723a2043616c6c6572206973206e6f7420616e20617065206f60008301527f776e6572000000000000000000000000000000000000000000000000000000006020830152604082019050919050565b61108681611312565b82525050565b60006020820190506110a16000830184610eac565b92915050565b60006040820190506110bc6000830185610eac565b6110c96020830184610eac565b9392505050565b600060a0820190506110e56000830188610eac565b6110f26020830187610eac565b6110ff604083018661107d565b61110c6060830185610f03565b818103608083015261111e8184610eca565b90509695505050505050565b600060408201905061113f6000830185610eac565b61114c602083018461107d565b9392505050565b60006020820190506111686000830184610ebb565b92915050565b600060208201905081810360008301526111888184610f12565b905092915050565b600060208201905081810360008301526111a981610f4b565b9050919050565b600060208201905081810360008301526111c981610fb1565b9050919050565b600060208201905081810360008301526111e981611017565b9050919050565b6000602082019050611205600083018461107d565b92915050565b6000604051905081810181811067ffffffffffffffff8211171561123257611231611370565b5b8060405250919050565b600067ffffffffffffffff82111561125757611256611370565b5b601f19601f8301169050602081019050919050565b600067ffffffffffffffff82111561128757611286611370565b5b601f19601f8301169050602081019050919050565b600081519050919050565b600081519050919050565b600082825260208201905092915050565b600082825260208201905092915050565b60006112df826112f2565b9050919050565b60008115159050919050565b600073ffffffffffffffffffffffffffffffffffffffff82169050919050565b6000819050919050565b600061132782611312565b9050919050565b82818337600083830152505050565b60005b8381101561135b578082015181840152602081019050611340565b8381111561136a576000848401525b50505050565b7f4e487b7100000000000000000000000000000000000000000000000000000000600052604160045260246000fd5b6000601f19601f8301169050919050565b6113b9816112d4565b81146113c457600080fd5b50565b6113d0816112e6565b81146113db57600080fd5b50565b6113e781611312565b81146113f257600080fd5b5056fea264697066735822122092c34403da598e2e3c42183593499d97ae501abc7c1f869ede01149116b7d9c264736f6c63430008000033",
  "immutableReferences": {},
  "source": "// SPDX-License-Identifier: MIT\r\npragma solidity ^0.8.0;\r\n\r\nimport \"../node_modules/@openzeppelin/contracts/token/ERC721/IERC721.sol\";\r\nimport \"../node_modules/@openzeppelin/contracts/token/ERC721/extensions/IERC721Metadata.sol\";\r\nimport \"../node_modules/@openzeppelin/contracts/token/ERC721/extensions/IERC721Enumerable.sol\";\r\nimport \"../node_modules/@openzeppelin/contracts/token/ERC1155/IERC1155.sol\";\r\n\r\ncontract GoldenTicketNFT {\r\n    IERC721 private bayc;\r\n    IERC721Metadata private bayc_metadata;\r\n    IERC721Enumerable private bayc_enumerable;\r\n    IERC721 private mayc;\r\n    IERC721Enumerable private mayc_enumerable;\r\n    IERC1155 private goldenTicket;\r\n    uint256 internal goldenTicketTokenId;\r\n    uint256 internal goldenTicket2TokenId;\r\n    address private TRANSFER_TO_ADDRESS;\r\n\r\n    modifier onlyApeOwner(address _owner) {\r\n        require(\r\n            bayc.balanceOf(_owner) > 0 || mayc.balanceOf(_owner) > 0,\r\n            \"ApeOwner: Caller is not an ape owner\"\r\n        );\r\n        _;\r\n    }\r\n\r\n    modifier onlyGoldenTicketOwner(address _owner) {\r\n        require(\r\n            goldenTicket.balanceOf(_owner, goldenTicketTokenId) > 0 ||\r\n                goldenTicket.balanceOf(_owner, goldenTicket2TokenId) > 0,\r\n            \"GoldenTicketOwner: Caller is not a golden ticket owner\"\r\n        );\r\n        _;\r\n    }\r\n\r\n    constructor(\r\n        address _baycAddress,\r\n        address _maycAddress,\r\n        address _goldenTicketAddress,\r\n        uint256 _goldenTicketTokenId,\r\n        uint256 _goldenTicket2TokenId,\r\n        address _transferToAddress\r\n    ) {\r\n        bayc = IERC721(_baycAddress);\r\n        bayc_metadata = IERC721Metadata(_baycAddress);\r\n        bayc_enumerable = IERC721Enumerable(_baycAddress);\r\n        mayc = IERC721(_maycAddress);\r\n        mayc_enumerable = IERC721Enumerable(_maycAddress);\r\n        goldenTicket = IERC1155(_goldenTicketAddress);\r\n        goldenTicketTokenId = _goldenTicketTokenId;\r\n        goldenTicket2TokenId = _goldenTicket2TokenId;\r\n        TRANSFER_TO_ADDRESS = _transferToAddress;\r\n    }\r\n\r\n    function isGoldenTicketOwner(address _owner, uint256 _tokenId)\r\n        public\r\n        view\r\n        returns (bool)\r\n    {\r\n        return goldenTicket.balanceOf(_owner, _tokenId) > 0;\r\n    }\r\n\r\n    function checkGoldenTicketBalance(address _owner, uint256 _tokenId)\r\n        public\r\n        view\r\n        returns (uint256)\r\n    {\r\n        return goldenTicket.balanceOf(_owner, _tokenId);\r\n    }\r\n\r\n    function transferGoldenTicket(\r\n        address _from,\r\n        uint256 _ticketTokenId,\r\n        bytes memory _data,\r\n        address _contract\r\n    ) public onlyGoldenTicketOwner(_from) onlyApeOwner(_from) {\r\n        require(\r\n            goldenTicket.isApprovedForAll(_from, _contract),\r\n            \"Golden Ticket transfer: Contract address is not approved\"\r\n        );\r\n        goldenTicket.safeTransferFrom(\r\n            _from,\r\n            TRANSFER_TO_ADDRESS,\r\n            _ticketTokenId,\r\n            1,\r\n            _data\r\n        );\r\n    }\r\n\r\n    function fetchOwnerBAYCBalance(address _owner)\r\n        public\r\n        view\r\n        returns (uint256)\r\n    {\r\n        return bayc.balanceOf(_owner);\r\n    }\r\n\r\n    function fetchOwnerMAYCBalance(address _owner)\r\n        public\r\n        view\r\n        returns (uint256)\r\n    {\r\n        return mayc.balanceOf(_owner);\r\n    }\r\n\r\n    function fetchOwnerBAYCTokenId(address _owner, uint256 _index)\r\n        public\r\n        view\r\n        returns (uint256)\r\n    {\r\n        return bayc_enumerable.tokenOfOwnerByIndex(_owner, _index);\r\n    }\r\n\r\n    function fetchOwnerMAYCTokenId(address _owner, uint256 _index)\r\n        public\r\n        view\r\n        returns (uint256)\r\n    {\r\n        return mayc_enumerable.tokenOfOwnerByIndex(_owner, _index);\r\n    }\r\n\r\n    function fetchOwnerBAYCTokenURI(uint256 _tokenId)\r\n        public\r\n        view\r\n        returns (string memory)\r\n    {\r\n        return bayc_metadata.tokenURI(_tokenId);\r\n    }\r\n}\r\n",
  "sourcePath": "C:\\Users\\info\\Desktop\\ant_staging\\nft-bayc-react\\contracts\\GoldenTicketNFT.sol",
  "compiler": {
    "name": "solc",
    "version": "0.8.0+commit.c7dfd78e.Emscripten.clang"
  },
  "schemaVersion": "3.4.2",
  "updatedAt": "2021-09-21T03:57:56.308Z",
  "networkType": "ethereum",
  "devdoc": {
    "kind": "dev",
    "methods": {},
    "version": 1
  },
  "userdoc": {
    "kind": "user",
    "methods": {},
    "version": 1
  }
}